:020000040800F2
:1000000000000220414F0008C94C0008CF4C0008F6
:10001000D54C0008DB4C0008E14C00080000000053
:10002000000000000000000000000000E74C000895
:10003000F54C000800000000034D0008114D0008B9
:10004000914F0008914F0008914F0008914F000810
:10005000914F0008914F0008914F0008914F000800
:10006000914F0008914F0008914F0008914F0008F0
:10007000914F0008914F0008914F0008914F0008E0
:10008000914F0008914F0008914F0008914F0008D0
:10009000914F0008914F0008914F0008914F0008C0
:1000A000914F0008914F0008914F00081D4D000826
:1000B000914F0008914F0008314D0008914F000802
:1000C000914F0008914F0008914F0008914F000890
:1000D000914F0008914F0008914F0008454D0008CE
:1000E000914F0008914F0008914F0008914F000870
:1000F000914F0008914F0008914F0008914F000860
:10010000914F0008914F0008914F0008914F00084F
:10011000914F0008914F0008914F0008594D000879
:10012000914F0008914F0008914F0008914F00082F
:10013000914F0008914F0008914F0008914F00081F
:10014000914F0008914F0008914F0008914F00080F
:10015000914F0008914F0008914F0008914F0008FF
:10016000914F0008914F0008914F0008914F0008EF
:10017000914F0008914F0008914F000800000000C7
:08018000914F0008914F0008A7
:1001900010B5054C237833B9044B13B10448AFF3C1
:1001A00000800123237010BDE80100200000000042
:1001B0000814010808B5034B1BB103490348AFF30A
:1001C000008008BD00000000EC01002008140108B8
:1001D00001F0FF01102A2BDB10F0070F08D010F8F8
:1001E000013B013A8B422DD010F0070F42B3F6D1FC
:1001F000F0B441EA012141EA014122F007047FF015
:1002000000070023F0E80256083C85EA010586EA6B
:10021000010685FA47F5A3FA87F586FA47F6A5FAA7
:1002200087F68EB9EED1F0BC01F0FF0102F00702B3
:1002300032B110F8013B013A83EA010313B1F8D15E
:100240000020704701387047002D06BF354603383F
:10025000073815F0010F07D1013015F4807F02BF78
:10026000013015F4C03F0130F0BC0138704700BFC9
:10027000034613F8012B002AFBD1181A01387047E6
:1002800081F0004102E000BF83F0004330B54FEA47
:1002900041044FEA430594EA050F08BF90EA020FB4
:1002A0001FBF54EA000C55EA020C7FEA645C7FEA47
:1002B000655C00F0E2804FEA5454D4EB5555B8BF6A
:1002C0006D420CDD2C4480EA020281EA030382EADB
:1002D000000083EA010180EA020281EA0303362D6D
:1002E00088BF30BD11F0004F4FEA01314FF4801C40
:1002F0004CEA113102D0404261EB410113F0004F52
:100300004FEA03334CEA133302D0524263EB430308
:1003100094EA050F00F0A780A4F10104D5F1200EA6
:100320000DDB02FA0EFC22FA05F2801841F1000101
:1003300003FA0EF2801843FA05F359410EE0A5F1D5
:1003400020050EF1200E012A03FA0EFC28BF4CF006
:10035000020C43FA05F3C01851EBE37101F00045BC
:1003600007D54FF0000EDCF1000C7EEB00006EEBC9
:100370000101B1F5801F1BD3B1F5001F0CD3490853
:100380005FEA30004FEA3C0C04F101044FEA4452AA
:1003900012F5800F80F09A80BCF1004F08BF5FEA31
:1003A000500C50F1000041EB045141EA050130BD11
:1003B0005FEA4C0C404141EB0101013C28BFB1F523
:1003C000801FE9D291F0000F04BF01460020B1FA6E
:1003D00081F308BF2033A3F10B03B3F120020CDA41
:1003E0000C3208DD02F1140CC2F10C0201FA0CF01F
:1003F00021FA02F10CE002F11402D8BFC2F1200C84
:1004000001FA02F120FA0CFCDCBF41EA0C01904039
:10041000E41AA2BF01EB0451294330BD6FEA040482
:100420001F3C1CDA0C340EDC04F11404C4F120026D
:1004300020FA04F001FA02F340EA030021FA04F37F
:1004400045EA030130BDC4F10C04C4F1200220FAD6
:1004500002F001FA04F340EA0300294630BD21FA14
:1004600004F0294630BD94F0000F83F4801306BFDA
:1004700081F480110134013D4EE77FEA645C18BFCE
:100480007FEA655C29D094EA050F08BF90EA020F65
:1004900005D054EA000C04BF1946104630BD91EA5D
:1004A000030F1EBF0021002030BD5FEA545C05D160
:1004B0004000494128BF41F0004130BD14F580049F
:1004C0003CBF01F5801130BD01F0004545F0FE4113
:1004D00041F470014FF0000030BD7FEA645C1ABF48
:1004E000194610467FEA655C1CBF0B46024650EA7F
:1004F000013406BF52EA033591EA030F41F40021AB
:1005000030BD00BF90F0000F04BF0021704730B530
:100510004FF4806404F132044FF000054FF0000105
:1005200050E700BF90F0000F04BF0021704730B5C6
:100530004FF4806404F1320410F0004548BF40429B
:100540004FF000013EE700BF42004FEAE2014FEAF0
:1005500031014FEA02701FBF12F07F4393F07F4FCB
:1005600081F06051704732F07F4208BF704793F0CE
:100570007F4F04BF41F40021704730B54FF46074E1
:1005800001F0004521F000411CE700BF50EA0102E4
:1005900008BF704730B54FF000050AE050EA01028D
:1005A00008BF704730B511F0004502D5404261EBFD
:1005B00041014FF4806404F132045FEA915C3FF43E
:1005C000D8AE4FF003025FEADC0C18BF03325FEADB
:1005D000DC0C18BF033202EBDC02C2F1200300FA8C
:1005E00003FC20FA02F001FA03FE40EA0E0021FAB1
:1005F00002F11444BDE600BF70B54FF0FF0C4CF49F
:10060000E06C1CEA11541DBF1CEA135594EA0C0F50
:1006100095EA0C0F00F0DEF82C4481EA030621EA8B
:100620004C5123EA4C5350EA013518BF52EA0335C6
:1006300041F4801143F4801338D0A0FB02CE4FF078
:100640000005E1FB02E506F00042E0FB03E54FF0A8
:100650000006E1FB03569CF0000F18BF4EF0010EA0
:10066000A4F1FF04B6F5007F64F5407404D25FEA9C
:100670004E0E6D4146EB060642EAC62141EA55514F
:100680004FEAC52040EA5E504FEACE2EB4F1FD0C91
:1006900088BFBCF5E06F1ED8BEF1004F08BF5FEA0F
:1006A000500E50F1000041EB045170BD06F00046C1
:1006B00046EA010140EA020081EA0301B4EB5C046E
:1006C000C2BFD4EB0C0541EA045170BD41F4801166
:1006D0004FF0000E013C00F3AB8014F1360FDEBF8B
:1006E000002001F0004170BDC4F10004203C35DA67
:1006F0000C341BDC04F11404C4F1200500FA05F3EA
:1007000020FA04F001FA05F240EA020001F000428A
:1007100021F0004110EBD37021FA04F642EB060100
:100720005EEA430E08BF20EAD37070BDC4F10C042A
:10073000C4F1200500FA04F320FA05F001FA04F2EE
:1007400040EA020001F0004110EBD37041F10001DA
:100750005EEA430E08BF20EAD37070BDC4F12005E5
:1007600000FA05F24EEA020E20FA04F301FA05F24D
:1007700043EA020321FA04F001F0004121FA04F2F5
:1007800020EA020000EBD3705EEA430E08BF20EAC5
:10079000D37070BD94F0000F0FD101F000464000FF
:1007A00041EB010111F4801F08BF013CF7D041EA81
:1007B000060195F0000F18BF704703F00046520085
:1007C00043EB030313F4801F08BF013DF7D043EA56
:1007D0000603704794EA0C0F0CEA135518BF95EA0C
:1007E0000C0F0CD050EA410618BF52EA4306D1D193
:1007F00081EA030101F000414FF0000070BD50EAB2
:10080000410606BF1046194652EA430619D094EA3B
:100810000C0F02D150EA013613D195EA0C0F05D125
:1008200052EA03361CBF104619460AD181EA030179
:1008300001F0004141F0FE4141F470014FF0000031
:1008400070BD41F0FE4141F4780170BD70B54FF0CC
:10085000FF0C4CF4E06C1CEA11541DBF1CEA13554C
:1008600094EA0C0F95EA0C0F00F0A7F8A4EB05042E
:1008700081EA030E52EA03354FEA013100F0888025
:100880004FEA03334FF0805545EA131343EA1263EE
:100890004FEA022245EA111545EA10654FEA0026A3
:1008A0000EF000419D4208BF964244F1FD0404F55C
:1008B000407402D25B084FEA3202B61A65EB0305B8
:1008C0005B084FEA32024FF480104FF4002CB6EB75
:1008D000020E75EB030E22BFB61A754640EA0C00F5
:1008E0005B084FEA3202B6EB020E75EB030E22BF35
:1008F000B61A754640EA5C005B084FEA3202B6EB76
:10090000020E75EB030E22BFB61A754640EA9C0034
:100910005B084FEA3202B6EB020E75EB030E22BF04
:10092000B61A754640EADC0055EA060E18D04FEAC2
:10093000051545EA16754FEA06164FEAC30343EA62
:1009400052734FEAC2025FEA1C1CC0D111F4801F2F
:100950000BD141EA00014FF000004FF0004CB6E728
:1009600011F4801F04BF01430020B4F1FD0C88BFC7
:10097000BCF5E06F3FF6AFAEB5EB030C04BFB6EBD2
:10098000020C5FEA500C50F1000041EB045170BDC5
:100990000EF0004E4EEA113114EB5C04C2BFD4EBF2
:1009A0000C0541EA045170BD41F480114FF0000E76
:1009B000013C90E645EA060E8DE60CEA135594EAF2
:1009C0000C0F08BF95EA0C0F3FF43BAF94EA0C0FF5
:1009D0000AD150EA01347FF434AF95EA0C0F7FF46A
:1009E00025AF104619462CE795EA0C0F06D152EABE
:1009F00003353FF4FDAE1046194622E750EA4106A2
:100A000018BF52EA43067FF4C5AE50EA41047FF4B2
:100A10000DAF52EA43057FF4EBAE12E74FF0FF3C17
:100A200006E000BF4FF0010C02E000BF4FF0010CE8
:100A30004DF804CD4FEA410C7FEA6C5C4FEA430C61
:100A400018BF7FEA6C5C1BD001B050EA410C0CBFB0
:100A500052EA430C91EA030F02BF90EA020F002012
:100A6000704710F1000F91EA030F58BF994208BF79
:100A700090422CBFD8176FEAE37040F00100704736
:100A80004FEA410C7FEA6C5C02D150EA013C07D18D
:100A90004FEA430C7FEA6C5CD6D152EA033CD3D0D8
:100AA0005DF8040B704700BF8446104662468C46D2
:100AB0001946634600E000BF01B5FFF7B7FF002805
:100AC00048BF10F1000F01BD4DF808EDFFF7F4FF2E
:100AD0000CBF012000205DF808FB00BF4DF808EDB9
:100AE000FFF7EAFF34BF012000205DF808FB00BFDC
:100AF0004DF808EDFFF7E0FF94BF012000205DF8FE
:100B000008FB00BF4DF808EDFFF7CEFF94BF0120B2
:100B100000205DF808FB00BF4DF808EDFFF7C4FFAB
:100B200034BF012000205DF808FB00BF4FEA410CF4
:100B30007FEA6C5C02D150EA013C0AD14FEA430CD7
:100B40007FEA6C5C02D152EA033C02D14FF0000014
:100B500070474FF0010070474FEA410212F5001252
:100B600015D211D56FF47873B3EB625212D94FEAF4
:100B7000C12343F0004343EA505311F0004F23FADE
:100B800002F018BF404270474FF00000704750EA33
:100B9000013005D111F0004008BF6FF000407047F0
:100BA0004FF00000704700BF4A0011D212F500124A
:100BB00011D20DD56FF47873B3EB62520ED44FEAB5
:100BC000C12343F0004343EA505323FA02F0704735
:100BD0004FF00000704750EA013002D14FF0FF3073
:100BE00070474FF0000070474FEA4102B2F1E04316
:100BF00024BFB3F5001CDCF1FE5C0DD901F0004C04
:100C00004FEAC0024CEA5070B2F1004F40EB830053
:100C100008BF20F00100704711F0804F21D113F17F
:100C20003872BCBF01F00040704741F480114FEAB8
:100C30005252C2F11802C2F1200C10FA0CF320FA41
:100C400002F018BF40F001004FEAC1234FEAD3235E
:100C500003FA0CFC40EA0C0023FA02F34FEA4303C8
:100C6000CCE77FEA625307D150EA01331EBF4FF051
:100C7000FE4040F44000704701F0004040F0FE406C
:100C800040F40000704700BF53B94AB9002908BFBB
:100C900000281CBF4FF0FF314FF0FF3000F0A6B925
:100CA000ADF1080C6DE904CE00F03CF8DDF804E08D
:100CB000DDE9022304B0704738B500220023044662
:100CC0000D46FFF70BFF28B920462946BDE83840FE
:100CD00000F00AB8204605F1004100F005F8404256
:100CE00061EB410138BD00BFD0B50C4B0022064678
:100CF0000F46FFF781FCFFF757FF0446FFF702FCA2
:100D0000074B0022FFF778FC02460B463046394677
:100D1000FFF7BAFAFFF748FF2146D0BD0000F03DCB
:100D20000000F0412DE9F047089E0D4604460F46AD
:100D3000002B4AD18A42944665D9B2FA82F343B174
:100D400002FA03FCC3F120029F4020FA02F217438B
:100D50009C404FEA1C4E1FFA8CF5B7FBFEF1220CAB
:100D60000EFB117742EA074201FB05F090420AD9D7
:100D70001CEB020201F1FF3780F01C81904240F22F
:100D8000198102396244121AA4B2B2FBFEF00EFBC2
:100D9000102244EA024400FB05F5A5420AD91CEBE7
:100DA000040400F1FF3280F00781A54240F2048183
:100DB0006444023840EA0140641B00211EB1DC405B
:100DC0000023C6E90043BDE8F0878B4208D9002E16
:100DD00000F0ED800021C6E900050846BDE8F08777
:100DE000B3FA83F1002949D1AB4202D3824200F227
:100DF000F880841A65EB030201201746002EE2D02A
:100E0000C6E90047DFE702B9FFDEB2FA82F3002B42
:100E100040F090808A1A4FEA1C471FFA8CFE01218D
:100E2000B2FBF7F507FB1520220C42EA00420EFB4D
:100E300005F0904208D91CEB020205F1FF3802D2FE
:100E4000904200F2CB804546121AA4B2B2FBF7F0F2
:100E500007FB102244EA02440EFB00FEA64508D917
:100E60001CEB040400F1FF3202D2A64500F2BB8065
:100E70001046A4EB0E0440EA05409FE7C1F12007AD
:100E80008B4022FA07FC4CEA030C05FA01F420FA25
:100E900007F3FD404FEA1C492343B5FBF9F81FFA5D
:100EA0008CFE09FB18551C0C44EA054408FB0EF5A2
:100EB000A54202FA01F200FA01F00BD91CEB04047E
:100EC00008F1FF3A80F08880A54240F28580A8F1C1
:100ED00002086444641B9DB2B4FBF9F309FB13449C
:100EE00045EA044403FB0EFEA64508D91CEB0404A6
:100EF00003F1FF356CD2A6456AD9023B644443EA4C
:100F00000843A3FB0295A4EB0E04AC42C846AE46D0
:100F100056D353D056B1B0EB080264EB0E0404FA7A
:100F200007F7CA40CC401743C6E9007418460021B1
:100F3000BDE8F087C3F1200102FA03FC20FA01F2B8
:100F400025FA01F19D402A434FEA1C471FFA8CFE07
:100F5000B1FBF7F007FB1015110C41EA054100FB4E
:100F60000EF58D4204FA03F408D91CEB010100F1DF
:100F7000FF382FD28D422DD902386144491B92B2DD
:100F8000B1FBF7F507FB151142EA014205FB0EF133
:100F9000914208D91CEB020205F1FF3816D29142AA
:100FA00014D9023D6244521A45EA004138E73146FD
:100FB000304608E73946E6E61046FBE64845A9D242
:100FC000B9EB020865EB0C0E013BA3E74546EAE7E7
:100FD0002B4694E74046D1E7D0467BE7023D62448A
:100FE00032E708460AE76444023842E7704700BF28
:100FF00080B58AB004AFF8600B467A60FB720023BC
:10100000FB757B68DBB21B01DBB27B75FB7A002BC7
:1010100001D1682300E06923BB75BB7D9BB25B00F7
:1010200099B20A2302930123019307F11503009358
:1010300001237F22F86805F0C5F80346FB75FB7DA8
:1010400018461837BD4680BD80B588B004AF7860BB
:10105000084611461A460346FB700B46BB70134602
:101060007B700023FB73FB78002B01D1682300E029
:101070006923BB73BB7B9BB25B0099B2BB789AB20E
:101080000A230293012301937B1C009301237868B8
:1010900005F098F80346FB73FB7B18461037BD46F6
:1010A00080BD80B588B004AF7860084611461A4606
:1010B0000346FB700B46BB7013463B800023FB735B
:1010C000FB78002B01D1682300E06923BB73BB7B55
:1010D0009BB25B0099B2BB789AB20A2302933B8819
:1010E0000193BB6900930123786805F065F9034615
:1010F000FB73FB7B18461037BD4680BD80B588B0BA
:1011000004AF78600B46FB701346BB700023FB7383
:10111000FB789AB20A23029301230193BB1C00932C
:1011200001231821786805F04DF80346FB73FB7B1B
:1011300018461037BD4680BD80B58AB004AFF86050
:101140000B467A60FB720023FB75FB7A9AB20A2386
:101150000293012301937B68009301231821F8680F
:1011600005F02AF90346FB75FB7D18461837BD4686
:1011700080BD80B58AB004AFF8607B600B46FB721F
:1011800013463B810023FB75FB7A9AB20A23029334
:101190003B8901937B68009301231821F86805F0CF
:1011A0000BF90346FB75FB7D18461837BD4680BD1D
:1011B00080B584B000AF7860084611461A460346F1
:1011C000FB700B46BB7013467B700023FB73FB78F0
:1011D000002219467868FFF70BFF0346FB73F97886
:1011E000802306227868FFF72FFF0346FB73C82091
:1011F00003F042FFF978012306227868FFF724FF05
:101200000346FB73F978002307227868FFF71CFF79
:101210000346FB73FB78022219467868FFF7E8FE65
:101220000346FB73BB785B005BB243F001035BB228
:10123000DBB2F97801227868FFF706FF0346FB73FB
:10124000F978042300227868FFF7FEFE0346FB735B
:101250007B785B005BB243F009035BB2DBB2F978E9
:1012600014227868FFF7F0FE0346FB73F978042335
:1012700011227868FFF7E8FE0346FB73FB78002233
:1012800019467868FFF7B4FE0346FB73F97802232A
:101290000F227868FFF7D8FE0346FB73082231213E
:1012A0007868FFF72BFF0346FB7300BF1037BD467E
:1012B00080BD00000000000080B588B002AFF8607B
:1012C0007B600B46FB721346BB72F97A07F114037D
:1012D000009302233722F868FFF7E3FE3B7D1B02F1
:1012E0001AB27B7D1BB21343FB82B7F916305B4207
:1012F00007EE903AF8EEE77A7B68C3ED007ABB7AA6
:10130000032B49D801A252F823F000BF1D13000897
:101310003313000849130008711300087B6893ED2C
:10132000007ADFED236AC7EE267A7B68C3ED007A88
:1013300032E07B6893ED007ADFED1E6AC7EE267A15
:101340007B68C3ED007A27E07B681B681846FFF7CF
:10135000FBF813A3D3E90023FFF778FA02460B4604
:1013600010461946FFF740FC02467B681A6013E0FE
:101370007B681B681846FFF7E7F80BA3D3E9002347
:10138000FFF764FA02460B4610461946FFF72CFC9D
:1013900002467B681A6000BF00BF1837BD4680BD9B
:1013A0006666666666664040666666666666304085
:1013B000000003430000834280B58EB002AFF860A6
:1013C0007B600B46FB721346BB72F97A07F1280368
:1013D000009306232D22F868FFF763FE97F8283064
:1013E0001B021AB297F829301BB213431BB23B847D
:1013F00097F82A301B021AB297F82B301BB213430E
:101400001BB27B8497F82C301B021AB297F82D3050
:101410001BB213431BB2BB84B7F9203007EE903ADE
:10142000F8EEE77AC7ED057AB7F9223007EE903A81
:10143000F8EEE77AC7ED067AB7F9243007EE903A6E
:10144000F8EEE77AC7ED077ABB7A032B00F28480C7
:1014500001A252F823F000BF69140008A514000887
:10146000E11400081D15000897ED057ADFED3C6AD0
:10147000C7EE267A7B68C3ED007A97ED067A7B6823
:101480000433DFED376AC7EE267AC3ED007A97EDB5
:10149000077A7B680833DFED326AC7EE267AC3ED40
:1014A000007A59E097ED057ADFED2E6AC7EE267ACD
:1014B0007B68C3ED007A97ED067A7B680433DFED35
:1014C000296AC7EE267AC3ED007A97ED077A7B6822
:1014D0000833DFED246AC7EE267AC3ED007A3BE0DD
:1014E00097ED057ADFED206AC7EE267A7B68C3EDBB
:1014F000007A97ED067A7B680433DFED1B6AC7EE4E
:10150000267AC3ED007A97ED077A7B680833DFED22
:10151000166AC7EE267AC3ED007A1DE097ED057ACC
:10152000DFED126AC7EE267A7B68C3ED007A97ED8D
:10153000067A7B680433DFED0D6AC7EE267AC3EDC9
:10154000007A97ED077A7B680833DFED086AC7EE0B
:10155000267AC3ED007A00BF00BF3037BD4680BD9C
:101560000000804600000046000080450000004565
:1015700090B587B000AF7860396007F1100304229E
:1015800011217868FFF7F5FD07F10F031A461821BE
:101590007868FFF7D1FD0023FB752AE0FB7D5B0037
:1015A000013318333B4413F8083C1B021AB2FB7D8D
:1015B0005B0018333B4413F8083C1BB21343BB8257
:1015C000B7F914301846FEF7ADFF0FA3D3E9002397
:1015D000FFF712F802460B4610461946FB7D9B00AA
:1015E0003A68D418FFF700FB03462360FB7D013304
:1015F000FB75FB7D012BD1D900BF00BF1C37BD4659
:1016000090BD00BFAFF30080333333333333C33F78
:1016100080B582B000AF87ED010A97ED010A00F0B6
:1016200005F800BF0837BD4680BD000080B582B018
:1016300000AF87ED010AB2EE021AF2EE0C0A97ED46
:10164000010A034800F0EAFD00BF0837BD4680BD2F
:101650000402002080B586B000AF87ED030AC7ED15
:10166000020A87ED011A354BD3ED006A97ED027A35
:10167000D7ED037A67EE277AF0EE670AB0EE660AD6
:1016800000F0FEFB87ED050A2C4B93ED017AD7EDB8
:10169000037A67EEA77AF2EE0C6A67EEA67A77EE27
:1016A000277A264BC3ED017AD7ED010A97ED050A9B
:1016B000224800F0CCFDD7ED057A9FED217AF4EEBB
:1016C000C77AF1EE10FA0CD597ED017AD7ED057ACD
:1016D00077EE677A9FED1B7AF4EEC77AF1EE10FA97
:1016E00015DCD7ED017A9FED167AF4EEC77AF1EEAC
:1016F00010FA1AD597ED057AD7ED017A77EE677A69
:101700009FED107AF4EEC77AF1EE10FA0DDD0B4B77
:10171000D3ED007ADFED0B0AB0EE670A00F0B0FB04
:10172000F0EE407A054BC3ED007A044B1B6807EEE0
:10173000903AB0EE670A1837BD4680BD040200201B
:101740000000B4C20000344380B582B000AF18205E
:1017500008F0AEFE03467B607B6800225A717B680E
:1017600000229A717B684FF000029A607B684FF00C
:1017700000021A617B6800221A737B6800225A619A
:101780007B6818460837BD4680BD80B586B000AF7F
:10179000F860B9601346FB71BB681B790133FB75B8
:1017A000FB7D184608F084FE03463B613B69FA79ED
:1017B0001A703B69581CBB681968FB7D013B1A46CF
:1017C00009F05DFFFB7D9AB24FF0FF333969F8688D
:1017D00007F068FE386908F073FE00BF1837BD4691
:1017E00080BD000080B588B000AFF860B9601346D6
:1017F000FB71FFF7A9FFB861BB681B78FB75BB687D
:101800003B61FB7D533B242B00F2D18001A252F8B7
:1018100023F000BFA9180008B1180008AF1900088C
:10182000AF190008BF180008AF190008AF19000869
:10183000AF190008AF190008AF190008AF19000868
:10184000AF190008AF190008AF190008AF19000858
:10185000AF190008AF190008AF190008AF19000848
:10186000AF190008AF190008AF190008AF19000838
:10187000AF190008AF190008AF190008AF19000828
:10188000AF190008AF190008AF190008AF19000818
:10189000AF190008AF190008CD180008AF190008EB
:1018A000AF190008DB180008BB6900225A711BE061
:1018B000BB6901225A71BB6900221A7314E0BB692B
:1018C00001225A71BB6901221A730DE0BB69FF2224
:1018D0005A71BB6900221A7306E0BB69FF225A7174
:1018E000BB6901221A7300BFFB7D532B2BD03B69D0
:1018F00001333B6107F1100303227C21184600F0FD
:10190000C5F80346DAB2BB699A713B6901333B61A2
:1019100007F1100306227C21184600F0F5F8F0EEDE
:10192000407ABB69C3ED027A3B6901333B6107F141
:10193000100306220A21184600F0E6F8F0EE407A7D
:10194000BB69C3ED047A3A69BB68D31ADBB20133D1
:10195000BB75BB69BA7D1A71BB7D184608F0A8FD3E
:1019600003461A46BB691A60BB691B68BA7DB96831
:10197000184609F084FE104B1B68002B03D10E4A59
:10198000BB6913600DE00C4B1B68FB6102E0FB6957
:101990005B69FB61FB695B69002BF8D1FB69BA6984
:1019A0005A617222B969F868FFF7EFFE00E000BFE4
:1019B0002037BD4680BD00BF1002002080B483B038
:1019C00000AF094B1B687B60074B1B68002B04D0E2
:1019D000054B1B685B69044A13607B6818460C372B
:1019E000BD465DF8047B70471002002080B400AF54
:1019F000034B1B681846BD465DF8047B704700BF6B
:101A00001002002080B582B000AF78603960662295
:101A100039687868FFF7B9FE3B681B68184608F01C
:101A20004FFD386808F04CFD00BF0837BD4680BD4B
:101A300080B483B000AF87ED010AD7ED017AF5EEEF
:101A4000C07AF1EE10FA04D5D7ED017AF1EE677A9B
:101A500001E0D7ED017AB0EE670A0C37BD465DF8BC
:101A6000047B704780B483B000AF03460A46FB7125
:101A70001346BB71BA79FB79934228BF1346DBB298
:101A800018460C37BD465DF8047B704780B485B0BE
:101A900000AF78600B46FB701346BB700023FB73EE
:101AA0007B681B681B78BB730023BB811DE0BB7B7D
:101AB000392B0ED8BB7B2F2B0BD9BB891A46920032
:101AC00013445B009AB2BB7B9BB213449BB2303B86
:101AD000BB817B681B685A1C7B681A607B681B682B
:101AE0001B78BB73FB7B0133FB73FA7BBB789A4299
:101AF00003D2BA7BFB789A42D9D1BB8918461437F6
:101B0000BD465DF8047B704780B588B000AF786053
:101B10000B46FB701346BB700023FB777B681B688A
:101B20001B78BB7700237B7701233B770023BB61C6
:101B30004FF000037B613C4B3B6151E0FB7F002B8E
:101B400007D1BB7F2D2B04D13B7F5B42DBB23B77C0
:101B50003AE0BB7F2E2B02D101237B7734E0BB7FA1
:101B6000392B31D8BB7F2F2B2ED9BB7F303BFB735A
:101B70007B7F002B1FD0FB7B07EE903AB8EEE77A15
:101B8000D7ED047A67EE277A97ED057A77EE277A14
:101B9000C7ED057A3869FEF7D7FC21A3D3E9002306
:101BA000FEF72AFD02460B4610461946FFF71CF8C1
:101BB00003463B6108E0BA6913469B0013445B008F
:101BC0001A46FB7B1344BB617B681B685A1C7B680D
:101BD0001A607B681B681B78BB77FB7F0133FB7740
:101BE000FA7FBB789A4203D2BA7FFB789A42A5D19A
:101BF000BB6907EE903AB8EE677AD7ED057A37EE13
:101C0000277A97F91C3007EE903AF8EEE77A67EEFC
:101C1000277AB0EE670A2037BD4680BDAFF300805B
:101C20009A9999999999B93FCDCCCC3D0000000083
:101C300080B582B000AF87ED010A7868FEF784FCBA
:101C400019A3D3E90023FEF7D7FC02460B46104642
:101C500019464FF00002124BFEF7F8FD02460B4604
:101C600043EC172BB0EE470AF0EE670A0DF09CF834
:101C700053EC102B4FF000000A49FEF7E7FD024637
:101C80000B4610461946FEF7AFFF034607EE903AA3
:101C9000B0EE670A0837BD4680BD00BFAFF30080D5
:101CA0000080664000002D40182D4454FB2109405F
:101CB00080B582B000AF87ED010A7868FEF744FC7A
:101CC00019A3D3E90023FEF797FC02460B46104602
:101CD00019464FF00002124BFEF7B8FD02460B46C4
:101CE00043EC172BB0EE470AF0EE670A0DF0B4F89C
:101CF00053EC102B4FF000000A49FEF7A7FD0246F7
:101D00000B4610461946FEF76FFF034607EE903A62
:101D1000B0EE670A0837BD4680BD00BFAFF3008054
:101D20000080664000002D40182D4454FB210940DE
:101D300080B586B000AF87ED010A97ED010AFFF785
:101D400077FF87ED040A194BFB60D7ED047A27EE85
:101D5000A77AD7ED037A67EEA77A77EE277A17EEA0
:101D6000900AFEF7F1FB02460B4643EC102B0CF0F9
:101D7000EDFF53EC102B10461946FEF735FF0346D6
:101D80007B61D7ED017AF5EEC07AF1EE10FA05D558
:101D9000D7ED057AF1EE677AC7ED057A7B6907EE34
:101DA000903AB0EE670A1837BD4680BD0000E840A3
:101DB00080B582B000AF87ED010AC7ED000AD7ED0C
:101DC000016A97ED007AC6EE877A9FED0F7A67EE8B
:101DD000877A17EE900AFEF7B7FB09A3D3E9002331
:101DE000FEF734FD02460B4610461946FEF7FCFE90
:101DF000034607EE903AB0EE670A0837BD4680BD4D
:101E0000182D4454FB2109400000344380B483B0B2
:101E100000AF87ED010A07E0D7ED017A9FED157A53
:101E200077EE877AC7ED017AD7ED017A9FED127AC6
:101E3000F4EEC77AF1EE10FAEED407E0D7ED017AAE
:101E40009FED0C7A77EEC77AC7ED017AD7ED017A6C
:101E50009FED0A7AF4EEC77AF1EE10FAEEDC7B68B9
:101E600007EE903AB0EE670A0C37BD465DF8047B8A
:101E7000704700BF0000B443000034C30000344387
:101E800080B582B000AF87ED010AC7ED000A97ED7B
:101E9000017AD7ED007A77EE277AB0EE670AFFF77E
:101EA000B5FFF0EE407AB0EE670A0837BD4680BD58
:101EB00080B582B000AF87ED010AC7ED000A97ED4B
:101EC000017AD7ED007A77EE677AB0EE670AFFF70E
:101ED0009DFFF0EE407AB0EE670A0837BD4680BD40
:101EE00080B582B000AF0346FB80FB8807EE903AD6
:101EF000B8EE677ADFED146AC7EE267A77EEA77A36
:101F000017EE900AFEF720FB0DA3D3E90023FEF79E
:101F100073FB02460B46104619464FF000020B4B6E
:101F2000FEF76AFB02460B4610461946FEF75CFEBA
:101F3000034607EE903AB0EE670A0837BD4680BD0B
:101F4000182D4454FB21094000E0BF4400000A4022
:101F5000B0B582B000AF87ED010AC7ED000A38685E
:101F6000FEF7F2FA15A3D3E90023FEF745FB02467C
:101F70000B4614461D467868FEF7E6FA02460B4605
:101F800020462946FEF738FB02460B461046194606
:101F90004FF00002084BFEF759FC02460B46104674
:101FA0001946FEF721FE034607EE903AB0EE670AA7
:101FB0000837BD46B0BD00BF00807640182D4454A0
:101FC000FB21194080B582B000AF7860054A7B687C
:101FD0001360044B1B68184605F0A4FC00BF0837CB
:101FE000BD4680BD1402002080B483B000AF03461C
:101FF000FB800A4B1B681B6800225A6200BF074B1C
:102000001B681B685A6AFB889A42F8D300BF00BF5E
:102010000C37BD465DF8047B704700BF14020020FA
:1020200080B500AF9FED020A00F004F800BF80BD4C
:102030000000000080B582B000AF87ED010AB6EE67
:10204000081ADFED0B0A9FED0B0A0B4800F0E6F8CB
:102050000A4B4FF000021A60084A7B685360074B36
:102060004FF000029A6000BF0837BD4680BD00BF38
:102070003E872437000000001802002024020020C0
:1020800080B483B000AF87ED010AC7ED000A224B90
:1020900093ED007A204BD3ED016AD7ED017A66EE1D
:1020A000A77A77EE277A1C4BC3ED007A1A4B93ED93
:1020B000017AD7ED006AD7ED017A66EEA77A77EE5E
:1020C000277A154BC3ED017A144B93ED017AD7EDC6
:1020D000017A67EEA76A104BD3ED027A66EEA77A13
:1020E00077EE277A0D4BC3ED017A0B4B93ED027A15
:1020F000D7ED017A67EEA77ADFED096A67EEA67A77
:1021000077EE277A044BC3ED027A00BF0C37BD4649
:102110005DF8047B704700BF2402002018020020F5
:102120003E87243780B584B000AF87ED030AC7ED42
:10213000020A87ED011AD7ED020A97ED030AFFF7AD
:102140009FFF0B4BD3ED007AD7ED010AB0EE670A83
:10215000084800F07CF8074B1B68054A1360044BE5
:102160001B6807EE903AB0EE670A1037BD4680BD97
:102170002402002018020020B0B584B000AF87ED23
:10218000010AC7ED000A7B68FB60D7ED017AB2EE69
:10219000047AF4EEC77AF1EE10FA2ADDD7ED017A6F
:1021A0009FED1D7AF4EEC77AF1EE10FA21D578682A
:1021B000FEF7CAF914A3D3E90023FEF71DFA02467D
:1021C0000B4614461D463868FEF7BEF910A3D3E946
:1021D0000023FEF711FA02460B4620462946FEF779
:1021E00055F802460B4610461946FEF7FDFC03461D
:1021F000FB60FB6807EE903AB0EE670A1037BD4609
:10220000B0BD00BFAFF300809A9999999999E93FC1
:102210009A9999999999C93F00008C4280B485B0E8
:1022200000AFF86087ED020AC7ED010A87ED001ADA
:10223000FB68BA681A60FB687A685A60FB683A689B
:102240009A6000BF1437BD465DF8047B704780B4C8
:1022500087B000AFF86087ED020AC7ED010AFB689E
:10226000D3ED016AFB6893ED017AFB68D3ED027A46
:1022700037EE277AC6EE877AC7ED057AFB6893EDCD
:10228000007AD7ED016AD7ED027A76EEE76AD7EDEC
:10229000057A66EEA77A77EE277AFB68C3ED007AB7
:1022A00000BF1C37BD465DF8047B704780B483B027
:1022B00000AF78607B680B4A1A607B680A4A5A60F4
:1022C0007B680A4A9A607B68094ADA607B68094A37
:1022D0001A617B68084A5A6100BF0C37BD465DF839
:1022E000047B70470000464166E661C2EFC9633F68
:1022F000029A18BFADFA4C3F50FC983F80B582B0AF
:1023000000AF78603960064A7B681360054A3B6815
:1023100013603868FFF7CAFF00BF0837BD4680BDAD
:10232000300200203402002080B485B000AF786015
:102330007B6893ED007A224B1B68D3ED007A77EE31
:10234000677AC7ED037A7B68043393ED007A1C4B00
:102350001B68D3ED017A77EE677AC7ED027A184BE6
:102360001B6893ED027AD7ED037A27EE277A144B98
:102370001B68D3ED036AD7ED027A66EEA77A77EE93
:10238000277A7B68C3ED007A0D4B1B6893ED047AC6
:10239000D7ED037A27EE277A094B1B68D3ED056A40
:1023A000D7ED027A66EEA77A7B68043377EE277A58
:1023B000C3ED007A00BF1437BD465DF8047B70475B
:1023C0003402002080B582B000AF7860012210494D
:1023D000104807F0F2F8104B1B785A1CD1B20E4A85
:1023E00011701A460A4B19780C4B9954084B1B78FC
:1023F0000A2B09D1084B1B781A4608490548FFF7F4
:10240000F1F9054B00221A7000BF0837BD4680BDA8
:1024100074050020CC0400205C050020600500202D
:1024200080B483B000AF78607B680C4A934207D1D8
:102430000B4B1B889BB201339AB2094B1A8006E002
:102440007B68084A934202D1074B01221A7000BFF1
:102450000C37BD465DF8047B704700BFAC0300201D
:10246000780500203C0400208005002000000000CA
:1024700080B582B000AF78607B68374A934262D102
:10248000364B1B78DBB2002B1DD1354B00221A7066
:10249000344B00221A807B681B6800225A622F4B43
:1024A00001221A707B681B681A6A7B681B6822F01D
:1024B0000A021A627B681B681A6A7B681B6842F012
:1024C00002021A6240E00021786806F011FA034621
:1024D000254A1360234B1B889BB21B041A46224BD0
:1024E0001B681344204A13601F4B1B6807EE903A89
:1024F000F8EE677A17EE900AFEF726F814A3D3E9F0
:102500000023FEF779F802460B4610461946FEF7FF
:102510006BFB034600EE103A01F098FE0F4B0022D1
:102520001A707B681B681A6A7B681B6822F00A02B3
:102530001A627B681A687B681B68126A1A62084B09
:1025400001221A7000E000BF0837BD4680BD00BF01
:102550008DEDB5A0F7C6B03EAC0300207505002098
:1025600076050020780500207C0500200000000092
:10257000F0B59DB000AF02F00DFD00F017FB00F0CC
:10258000EDFE00F0C1FE00F0C1FB00F011FE00F016
:102590008BFC00F0DDFC00F0E7FB00F02DFD00F00F
:1025A00063FB00F099FD00F0CDFD01F037FCC1495F
:1025B000C148FFF7A3FEC14BC14AC249BE4801F062
:1025C000DBFDC14AC149C24800F074FFC14802F0B6
:1025D00043F8C148FFF7F6FCFFF722FD9FEDBF0A65
:1025E00002F05EF80021002001F044FABC4A00210C
:1025F000002001F0E1FB01F0B5FA00BF02F08EFC13
:102600000346002BFAD001F0E5FAB64A002100207B
:1026100001F0D2FB01F0A6FA4FF4FA7001F060FF6E
:1026200001F0D8FAB04A0021002001F0C5FB01F00A
:1026300099FA002387F86F30082387F8473097F816
:10264000473087F846300023BB664FF000033B64F9
:102650004FF00003FB634FF00003BB634FF0000338
:102660007B664FF000033B664FF00003FB654FF0C5
:102670000003BB654FF000037B654FF000037B63F5
:102680004FF000033B654FF00003FB644FF0000385
:10269000BB6401229549964806F08FFF894802F0F5
:1026A00053FD944805F0A6F997F86F3097F8472046
:1026B000B3FBF2F101FB02F29B1ADBB2002B01D15A
:1026C00001F0A8FD01F0F0FD01F0A2FE01F07CFE9A
:1026D0007A4BD3ED027AF0EE670AB0EE040A01F00D
:1026E000D3FEBB6E002B75D1FFF768F9B866BB6EE1
:1026F000002B6FD04FF000033B664FF000037B666A
:10270000BB6E93F90520BB6E9B791946104601F00C
:10271000B1F9BB6E93F90530002B55D0BB6E1B6928
:10272000FB65754BBB65BB6E1B7B002B02D1B3EE0B
:10273000007A01E09FED717ABB6E9B7907EE903ACB
:10274000F8EEE77A27EE277ADFED6D6AC7EE267A94
:10275000C7ED157ABB6E9B683B6497ED100A01F0DC
:102760009FFFD7ED107AF5EE407AF1EE10FA21D006
:1027700097ED100AFFF79CFA87ED130A97ED100A00
:10278000FFF7D6FA87ED120ABB6E1B7B002B21D117
:10279000BB6ED3ED047AD7ED120AB0EE670AFFF7ED
:1027A000D7FBF0EE407AB0EE670AFFF741F987ED0C
:1027B000170A0FE04FF00003FB644FF00003BB6407
:1027C0004FF000033B6505E0B96E4948FFF71AF981
:1027D0000023BB66BB6E002B00F0BE81BB6E93F97D
:1027E0000530002B00F0B88100F044FF87ED0F0AA0
:1027F000BB6E93F9053007EE903AB8EEE77A2F4BAF
:10280000D3ED047A67EE277A97ED0F1AF0EE670A98
:10281000B0EE040AFFF786FC87ED0E0A97ED0E7AFC
:10282000D7ED187A37EE677AF0EE046AC7EE267AAB
:10283000C7ED0C7ABB6B3B66D7ED127AF5EE407AAA
:10284000F1EE10FA07D0D7ED120A97ED0C0AFFF758
:10285000AFFA87ED140ABB6E93F9053007EE903A94
:10286000B8EEE77A154BD3ED027A67EE277AC7ED1B
:102870000B7A97ED0B7AD7ED147A77EE677AC7ED7E
:102880000D7AD7ED0B7AB0EE047A67EE877AB0EE68
:10289000670AFFF7CDF8B0EE407AD7ED197A77EEF8
:1028A000877AC7ED197ABB6E1B7B002B2AD0012BD0
:1028B0005BD084E044050020800200201405002045
:1028C000AC03002038020020640300201C03002019
:1028D00084040020D4020020F40300200000000043
:1028E000201401083C140108541401087405002048
:1028F000CC0400203C0400200000204100002042C5
:102900000000C84297ED177AD7ED0E7A77EE677A16
:10291000C7ED167AD7ED127AF5EE407AF1EE10FA9D
:1029200050D0BB6ED3ED047A97ED197AB4EEE77A06
:10293000F1EE10FA03DB4FF00003BB6542E0BB6E23
:1029400093ED047AD7ED197A77EE677AD7ED120A0C
:10295000B0EE670AFFF7FCFAF0EE407AB0EE670AD5
:10296000FFF766F887ED160A2CE0894B1B78DBB27F
:10297000002B29D0874BD3ED017A864B93ED007A5B
:10298000F0EE470AB0EE670AFFF7F6FB87ED0A0A9A
:10299000BB6ED3ED047A97ED0A7A77EE677AC7EDCE
:1029A000167ABB6E93F9053007EE903AF8EEE77AA7
:1029B00097ED167A67EE277AC7ED167A04E0764B24
:1029C000BB6502E000BF00E000BFFFF70FF87862D0
:1029D0007B6A002B02D07B6A9B6801E04FF000030A
:1029E0003B627B6A93ED027ABB6ED3ED027A77EE9F
:1029F000677AB0EE670AFFF71BF887ED070ABB6E30
:102A00001B7B012B13D07B6A002B10D07B6A93F9C0
:102A10000520BB6E93F905309A4208D1D7ED077AAD
:102A2000B3EE097AF4EEC77AF1EE10FA01DD012374
:102A300000E00023FB767B6A9B7919461920FFF79B
:102A400011F80346BB76BB6E1A7BFB7E002B01D1CF
:102A5000BB7E00E000231946104697ED152AD7EDFE
:102A6000161A97ED121AD7ED130A97ED0D0A00F01A
:102A700039FEBB7E07EE903AF8EEE77A9FED477A93
:102A800067EE877AF3EE096A87EEA67AD7ED077AC2
:102A900027EE277AF3EE096AC7EE267AC7ED057AA4
:102AA000FB7E002B1BD0B86DFDF74EFD04460D4696
:102AB000786DFDF749FD34A3D3E90023FDF79CFDB4
:102AC00002460B4601210E4620462946FEF706F82F
:102AD0000346002B01D100231E46F3B217E0D7EDC9
:102AE0000C7AF5EEC07AF1EE10FA0EDDD7ED166A2B
:102AF00097ED0C7AC6EE877A97ED057AB4EEE77A11
:102B0000F1EE10FA01DD012300E00023DBB2FB74DB
:102B1000FB7C002B03D097ED080A01F0C1FDD7ED37
:102B2000167AF5EEC07AF1EE10FA15D8B96E1C4897
:102B3000FEF768FF0023BB66FB7E002B08D0002158
:102B4000002000F097FF9FED170AFFF773FA03E0EC
:102B500097ED0C0AFFF76EFA00BF134B1B78DBB240
:102B6000002BFAD0104B00221A7097F86F30013307
:102B700097F8462093FBF2F101FB02F29B1A87F8CB
:102B80006F3091E5AFF300809A9999999999993F9F
:102B900076050020140500200000204100001043AD
:102BA000CC040020000000008005002080B594B017
:102BB00000AF07F1200330220021184608F0CFFCB7
:102BC00007F10C0300221A605A609A60DA601A61F9
:102BD0000023BB60224B1B6C214A43F080531364DB
:102BE0001F4B1B6C03F08053BB60BB6800237B60F2
:102BF0001C4B1B681B4A43F480431360194B1B6832
:102C000003F480437B607B6802233B620123FB6209
:102C100010233B630023BB6307F12003184604F035
:102C2000D9F90346002B01D000F03EFC0F23FB60D6
:102C300000233B6100237B610023BB610023FB6118
:102C400007F10C030021184604F03CFC0346002B5E
:102C500001D000F029FC00BF5037BD4680BD00BF49
:102C6000003802400070004080B584B000AF3B46A1
:102C700000221A605A609A60DA60214B214A1A6079
:102C80001F4B00225A601E4B00229A601C4B0022F0
:102C90001A611B4B01221A76194B002283F820205F
:102CA000174B0022DA62164B174A9A62144B002225
:102CB000DA60134B0122DA61114B002283F83020D5
:102CC0000F4B01225A610E4802F0FAF90346002B1D
:102CD00001D000F0E9FB0D233B6001237B60002362
:102CE000BB603B461946064802F098FB0346002BA2
:102CF00001D000F0D9FB00BF1037BD4680BD00BF3A
:102D000038020020002001400100000F80B500AF14
:102D1000124B134A1A60114B124A5A600F4B002291
:102D20009A600E4B0022DA600C4B4FF480421A611D
:102D30000A4B00225A61094B00229A61074B00227C
:102D4000DA61064B00221A62044803F0F7F80346E2
:102D5000002B01D000F0A8FB00BF80BD8002002046
:102D600000540040801A060080B596B000AF07F10D
:102D7000480300221A605A609A60DA6007F1400343
:102D800000221A605A6007F1240300221A605A6078
:102D90009A60DA601A615A619A613B1D2022002113
:102DA000184608F0DCFB3E4B3E4A1A603C4B0422BE
:102DB0005A603B4B00229A60394B4FF6FF12DA60A3
:102DC000374B00221A61364B00225A61344B0022E5
:102DD0009A61334804F056FD0346002B01D000F001
:102DE00063FB4FF48053BB6407F1480319462C483A
:102DF00005F0B6FC0346002B01D000F055FB284837
:102E000004F068FE0346002B01D000F04DFB0023C8
:102E10003B6400237B6407F140031946204806F019
:102E20000FFA0346002B01D000F03EFB60237B62CB
:102E30000023BB620023FB6200233B6300237B6310
:102E40000023BB630023FB6307F124030022194620
:102E5000134805F0C3FB0346002B01D000F024FB10
:102E600000237B600023BB600023FB6000233B61E9
:102E700000237B614FF40053BB6100233B623B1D89
:102E80001946074806F058FA0346002B01D000F017
:102E90000BFB034801F066FE00BF5837BD4680BDFE
:102EA000D40200200000014080B58CB000AF07F1D3
:102EB0000C0324220021184608F051FB3B1D002280
:102EC0001A605A60214B4FF080421A601F4B00225B
:102ED0005A601E4B00229A601C4B4FF6FF72DA605C
:102EE0001A4B00221A61194B00229A610323FB60DE
:102EF00000233B6101237B610023BB610023FB6155
:102F000000233B6201237B620023BB620023FB6240
:102F100007F10C0319460D4805F080F80346002B15
:102F200001D000F0C1FA00237B600023BB603B1D91
:102F30001946064806F084F90346002B01D000F03C
:102F4000B3FA00BF3037BD4680BD00BF1C03002070
:102F500080B58CB000AF07F10C0324220021184685
:102F600008F0FDFA3B1D00221A605A60204B214AEE
:102F70001A601F4B00225A601D4B00229A601C4BA6
:102F80004FF6FF72DA601A4B00221A61184B0022CA
:102F90009A610323FB6000233B6101237B610023D3
:102FA000BB610023FB6100233B6201237B620023A2
:102FB000BB620023FB6207F10C0319460C4805F0C5
:102FC0002DF80346002B01D000F06EFA00237B6041
:102FD0000023BB603B1D1946054806F031F9034646
:102FE000002B01D000F060FA00BF3037BD4680BD35
:102FF000640300200004004080B58AB000AF07F1F0
:10300000180300221A605A609A60DA6007F1100310
:1030100000221A605A603B4600221A605A609A6089
:10302000DA602B4B2B4A1A60294B0F225A60284B2F
:1030300000229A60264B4FF6FF72DA60244B002282
:103040001A61234B00229A61214804F01BFC0346BD
:10305000002B01D000F028FA4FF48053BB6107F138
:10306000180319461A4805F07BFB0346002B01D0D4
:1030700000F01AFA164804F04FFE0346002B01D068
:1030800000F012FA00233B6100237B6107F110037B
:1030900019460F4806F0D4F80346002B01D000F083
:1030A00003FA00233B6001237B600023BB60002305
:1030B000FB603B4600221946054805F0F3F903463C
:1030C000002B01D000F0F0F900BF2837BD4680BDCD
:1030D000AC0300200008004080B582B000AF3B4642
:1030E00000221A605A60154B154A1A60134B0F22C2
:1030F0005A60124B00229A60104B4FF6FF72DA6052
:103100000E4B00229A610D4804F0BCFB0346002BD5
:1031100001D000F0C9F900233B6000237B603B46EF
:103120001946064806F08CF80346002B01D000F043
:10313000BBF900BF0837BD4680BD00BFF4030020C7
:103140000010004080B582B000AF3B4600221A60FC
:103150005A60154B154A1A60134B01225A60124BE4
:1031600000229A60104B44F61F62DA600E4B002278
:103170009A610D4804F086FB0346002B01D000F055
:1031800093F900233B6000237B603B4619460648C9
:1031900006F056F80346002B01D000F085F900BF79
:1031A0000837BD4680BD00BF3C040020001400402D
:1031B00080B596B000AF07F1480300221A605A604C
:1031C0009A60DA6007F1400300221A605A6007F142
:1031D000240300221A605A609A60DA601A615A6108
:1031E0009A613B1D20220021184608F0B8F9444B93
:1031F000444A1A60424B00225A60414B00229A60B6
:103200003F4B41F61F42DA603D4B00221A613C4BB6
:1032100000225A613A4B00229A61394804F032FB8D
:103220000346002B01D000F03FF94FF48053BB64FC
:1032300007F148031946324805F092FA0346002B7D
:1032400001D000F031F92E4804F044FC0346002B75
:1032500001D000F029F900233B6400237B6407F1CF
:1032600040031946264805F0EBFF0346002B01D02A
:1032700000F01AF960237B620023BB620023FB622B
:1032800000233B6300237B630023BB630023FB63BA
:1032900007F1240300221946194805F09FF9034657
:1032A000002B01D000F000F907F124030422194695
:1032B000134805F093F90346002B01D000F0F4F811
:1032C00000237B600023BB600023FB6000233B6185
:1032D00000237B614FF40053BB6100233B623B1D25
:1032E0001946074806F028F80346002B01D000F0E5
:1032F000DBF8034801F036FC00BF5837BD4680BDFF
:10330000840400200004014080B500AF114B124A34
:103310001A60104B4FF4E1325A600E4B00229A6053
:103320000C4B0022DA600B4B00221A61094B0C2275
:103330005A61084B00229A61064B0022DA61054867
:1033400006F060F80346002B01D000F0ADF800BF96
:1033500080BD00BFCC0400200048004080B58AB08A
:1033600000AF07F1140300221A605A609A60DA6015
:103370001A6100233B61484B1B6B474A43F0100323
:103380001363454B1B6B03F010033B613B69002348
:10339000FB60414B1B6B404A43F0040313633E4BFD
:1033A0001B6B03F00403FB60FB680023BB603A4B1C
:1033B0001B6B394A43F001031363374B1B6B03F05C
:1033C0000103BB60BB6800237B60334B1B6B324A3D
:1033D00043F008031363304B1B6B03F008037B605F
:1033E0007B6800233B602C4B1B6B2B4A43F0020392
:1033F0001363294B1B6B03F002033B603B68002205
:103400004FF4F071254802F07FFD00223C21244852
:1034100002F07AFD00228021224802F075FD4FF46F
:10342000F0737B610123BB610023FB6100233B62DE
:1034300007F114031946194802F0B2FB3C237B61E3
:103440000123BB610023FB6100233B6207F11403EE
:103450001946134802F0A4FB4FF480737B610023EC
:10346000BB610123FB6107F1140319460D4802F00B
:1034700097FB80237B610123BB610023FB61002359
:103480003B6207F114031946064802F089FB00BFAE
:103490002837BD4680BD00BF003802400010024002
:1034A00000000240000C024080B400AF72B600BFC2
:1034B000FEE7000080B584B000AFF860B9607A60C4
:1034C000244AFB681360244ABB681360234A7B6864
:1034D00013603C21B86804F047FE3C21786804F092
:1034E00043FE0021F86804F04FFB0421F86804F063
:1034F0004BFBDFED1B7A9FED1B7ADFED1B6AB0EE15
:10350000661AF0EE470AB0EE670A184800F024FD8C
:10351000DFED177A9FED177ADFED176AB0EE661AC6
:10352000F0EE470AB0EE670A144800F015FDDFED33
:10353000147A9FED147ADFED146AB0EE661AF0EE9D
:10354000470AB0EE670A114800F006FD00BF1037C9
:10355000BD4680BD84050020880500208C05002024
:1035600000606A460080544400401C4698050020D4
:103570003D0A573EFAED6B3ACDCCCC3DAC05002070
:103580009A99793FACC52737B81E053EC005002083
:1035900080B483B000AF78607B681B6800225A62F9
:1035A00000BF0C37BD465DF8047B704780B400AFA8
:1035B0000E4B1B8841F27072934228BF13469AB299
:1035C0000B4B1B681B685A630A4B1B8841F27072D5
:1035D000934228BF13469AB2054B1B681B689A6337
:1035E00000BFBD465DF8047B704700BF9405002016
:1035F000840500209605002080B500AF054800F046
:1036000099FC054800F096FC044800F093FC00BFCC
:1036100080BD00BF98050020AC050020C00500203B
:1036200080B500AF054B1B681846FFF7B1FF044B90
:103630001B681846FFF7ACFF00BF80BD880500205F
:103640008C05002080B485B000AF0346FB71FB7988
:103650009BB21A461201D31A9B00FB81FB89F92BFE
:1036600001D8FA23FB81FB8918461437BD465DF863
:10367000047B704780B584B000AF184B1B681B6893
:103680005B6ABB60164B1B681B685B6A7B60BB6830
:10369000FB817B68BB81B7F90E30002B03DAFB8915
:1036A0005B429BB2FB81B7F90C30002B03DABB897C
:1036B0005B429BB2BB81FA89BB8913447B807B88C8
:1036C0005B087B807B881846FEF70AFCF0EE407AA8
:1036D000B0EE670A1037BD4680BD00BF88050020E8
:1036E0008C05002080B52DED028B8EB000AF87EDEC
:1036F000050AC7ED040A87ED031AC7ED021A87ED24
:10370000012A03460A46FB701346BB7097ED027A06
:10371000D7ED017AB4EEE77AF1EE10FA38D5FB78FE
:10372000002B01D1A14B00E0A14BFB62BB781846F6
:10373000FFF788FF03467B859E4B1B887A8D9A4254
:1037400032D27B8D07EE903AB8EEE78AF7EE000AA8
:1037500097ED020AF86A00F019FCF0EE406AD7ED26
:10376000017A86EEA77A934B1B881A467B8DD31A73
:1037700007EE903AF8EEE77A67EE277A78EE277A46
:10378000FCEEE77A17EE903A9AB28B4B1A800BE078
:10379000894B1A88874B1B889A4205D2864B1B8817
:1037A0000F339AB2844B1A80834B1A88814B1B8843
:1037B0009A4203D97F4B1A887F4B1A80F7EE000A92
:1037C00097ED050A7D4800F0E1FBB0EE407A7A4BB8
:1037D0001B8807EE903AF8EEE77A67EE276A754B9A
:1037E0001B8807EE903AB8EEE77AC6EE877AC7ED07
:1037F000097A4FF07E537B634FF07E533B63D7EDE6
:10380000047AF5EE407AF1EE10FA4DD0D7ED037A56
:10381000F5EE407AF1EE10FA46D0694B3B62D7EDF7
:10382000047AF5EEC07AF1EE10FA25D5D7ED037AD9
:10383000F5EEC07AF1EE10FA1ED5D7ED047AB1EEAE
:10384000677AD7ED087A77EE677AF1EE676A97EDD7
:10385000037AC6EE877AC7ED0D7A97ED087AD7ED31
:10386000047A77EE677AF1EE676A97ED037AC6EE2F
:10387000877AC7ED0C7A17E097ED047AD7ED087ACE
:1038800077EE276A97ED037AC6EE877AC7ED0D7A51
:1038900097ED047AD7ED087A77EE676A97ED037AA9
:1038A000C6EE877AC7ED0C7A434B1B8807EE903A39
:1038B000B8EEE77AD7ED0D7A27EE277AD7ED097AB9
:1038C00077EE677AFCEEE77A17EE903A9AB23D4BC4
:1038D0001A80394B1B8807EE903AB8EEE77AD7ED9D
:1038E0000C7A27EE277AD7ED097A77EE277AFCEE65
:1038F000E77A17EE903A9AB2334B1A80314B1B8815
:1039000041F27072934205D82F4B1B8841F27072BE
:10391000934242D92B4B1A882B4B1B889A421ED9B3
:10392000294B1A88274B1B88B2FBF3F39BB207EE97
:10393000903AF8EEE77AC7ED077A224B41F27072BF
:103940001A80D7ED077A9FED217A67EE877AFCEE31
:10395000E77A17EE903A9AB21B4B1A801DE0194B8A
:103960001A88194B1B88B2FBF3F39BB207EE903A0F
:10397000F8EEE77AC7ED077AD7ED077A9FED137A6D
:1039800067EE877AFCEEE77A17EE903A9AB20D4B23
:103990001A800D4B41F270721A80FFF707FE00BFCC
:1039A0003837BD46BDEC028B80BD00BFAC050020A2
:1039B000C0050020920500209005002098050020F9
:1039C0009A99014194050020960500200080BB458E
:1039D00080B582B000AF0346FB7197F90730002B2A
:1039E00014DD01220821224802F08EFA002204216F
:1039F0001F4802F089FA012210211D4802F084FAC2
:103A0000002220211A4802F07FFA2CE097F90730B3
:103A1000002B14DA00220821154802F075FA012261
:103A20000421134802F070FA00221021104802F01D
:103A30006BFA012220210E4802F066FA13E0002200
:103A400008210B4802F060FA00220421084802F025
:103A50005BFA00221021064802F056FA00222021CB
:103A6000034802F051FA00BF0837BD4680BD00BFD1
:103A70000000024080B582B000AF03460A46FB71E9
:103A80001346BB7197F90730002B06D10020FFF7D2
:103A90009FFF0D4B00221A8012E0BB791846FFF7FA
:103AA000D1FD03461A46094B1A80FFF7B9FDFFF70F
:103AB000A3FD97F907301846FFF78AFFFFF776FD59
:103AC0000837BD4680BD00BF90050020920500204C
:103AD00080B584B000AF03460A46FB711346BB7144
:103AE000BB79012B06D101224FF480711C4802F0F2
:103AF0000BFA05E000224FF48071194802F004FA35
:103B00000023FB731FE000222021154802F0FCF97E
:103B1000FA79FB7B802141FA03F31340002B05D097
:103B2000012240210E4802F0EFF904E0002240217A
:103B30000B4802F0E9F901222021094802F0E4F9DA
:103B4000FB7B0133FB73FB7B072BDCD901224FF49A
:103B50008071034802F0D8F900BF1037BD4680BD20
:103B60000010024080B582B000AF0023FB7126E058
:103B7000FB79503BDBB200211846FFF7A9FF00217B
:103B80000020FFF7A5FF00211020FFF7A1FF002371
:103B9000BB710DE0BA79FB790D49D2000A44134498
:103BA0001B7801211846FFF793FFBB790133BB71E6
:103BB00097F90630002BEDDAFB790133FB71FB79C5
:103BC000072BD5D900BF00BF0837BD4680BD00BF59
:103BD000D405002080B582B000AF0023FB7114E053
:103BE0000023BB710AE0BA79FB790C49D2000A4480
:103BF000134400221A70BB790133BB7197F9063068
:103C0000002BF0DAFB790133FB71FB79072BE7D945
:103C1000FFF7A8FF00BF0837BD4680BDD4050020D0
:103C200080B485B000AF0346FB710B46BB711346F1
:103C30007B710023FB7397F90730002B41DBBB79C5
:103C40003F2B3ED8BB79DB08DBB2C3F10703BB7364
:103C5000BB7903F007037B737B7BC3F1070301226E
:103C600002FA03F3FB737B79002B12D0FA79BB7B4A
:103C70001749D2000A4413441878FA79BB7BF97BC0
:103C80000143C8B21249D2000A44134402461A70D2
:103C900018E0FA79BB7B0E49D2000A4413441B7822
:103CA0005AB297F90F30DB435BB2134059B2FA793D
:103CB000BB7BC8B20649D2000A44134402461A70BC
:103CC00000E000BF1437BD465DF8047B704700BFBD
:103CD000D405002090B585B000AF044608461146D3
:103CE0001A462346FB710346BB710B467B71134694
:103CF0003B71BB793B737B79203B7B710023BB73AA
:103D00004DE03B790C2B0BD17A79B97B28481346CF
:103D10005B0013449B0003440B441B78FB7307E0D8
:103D20007A79BB7B234912010A4413441B78FB7345
:103D300000237B732DE097F90F30002B07DA97F8FB
:103D40002020B979FB791846FFF76AFF0CE097F855
:103D50002030002B0CBF01230023DBB21A46B979B7
:103D6000FB791846FFF75CFFFB7B5B00FB73BB79BD
:103D70000133BB71BA793B7BD21A3B799A4205D1A8
:103D80003B7BBB71FB790133FB7105E07B7B01332E
:103D90007B737B7B072BCED9BB7B0133BB73BA7B99
:103DA0003B799A42ADD300BF00BF1437BD4690BDEA
:103DB0005C140108D018010880B584B002AF034636
:103DC0003A60FB710B46BB711FE0FB797A2B04D97B
:103DD0000023FB71BB791033BB71BB793A2B05D93A
:103DE0000023FB71FB79BB71FFF7F4FE3B681A7887
:103DF000B979F879012300930C23FFF76BFFFB7966
:103E00000833FB713B6801333B603B681B78002B38
:103E1000DBD100BF00BF0837BD4680BD80B500AF15
:103E200003F0B0F8414B1B6F404A23F001031367C6
:103E30003E4B1B6F3D4A23F00403136703F0B6F8B3
:103E4000002280213A4802F05FF8642001F014F962
:103E500001228021364802F057F80021AE20FFF7FA
:103E600037FE0021D520FFF733FE00215020FFF759
:103E70002FFE0021A820FFF72BFE00213F20FFF797
:103E800027FE0021D320FFF723FE00210020FFF7AB
:103E90001FFE00214020FFF71BFE00218D20FFF7B1
:103EA00017FE00211420FFF713FE00212020FFF74A
:103EB0000FFE00210220FFF70BFE0021A120FFF7DB
:103EC00007FE0021C020FFF703FE0021DA20FFF7E4
:103ED000FFFD00211220FFF7FBFD00218120FFF7ED
:103EE000F7FD0021EF20FFF7F3FD0021D920FFF7B8
:103EF000EFFD0021F120FFF7EBFD0021DB20FFF7B4
:103F0000E7FD00213020FFF7E3FD0021A420FFF7AB
:103F1000DFFD0021A620FFF7DBFD0021AF20FFF72A
:103F2000D7FDFFF757FE00BF80BD00BF003802403D
:103F30000010024080B483B000AF78607B684FF01F
:103F400000025A607B684FF000021A6000BF0C3715
:103F5000BD465DF8047B704780B584B000AFF86063
:103F600087ED020AC7ED010A87ED001AF868FFF72E
:103F7000E1FFFB68BA689A60FB687A68DA60FB6800
:103F80003A681A6100BF1037BD4680BD80B487B063
:103F900000AFF86087ED020AC7ED010AFB6893EDF8
:103FA000017AD7ED027A77EE277AFB68C3ED017AC2
:103FB000FB68D3ED007A97ED027A77EE677AC7ED6A
:103FC000057AFB68BA681A60FB6893ED027AD7ED50
:103FD000027A27EE277AD7ED017A27EE277AFB6857
:103FE000D3ED016AFB68D3ED037A66EEA76AD7EDDD
:103FF000017A66EEA77A37EE277AFB68D3ED046A7A
:10400000D7ED057A66EEA76AD7ED017A66EEA77A54
:1040100077EE277AB0EE670A1C37BD465DF8047B61
:10402000704780B485B000AF87ED030AC7ED020A80
:1040300087ED011A97ED037AD7ED027A27EE277AFA
:10404000F7EE006AD7ED037A76EEE76AD7ED017AEC
:1040500066EEA77A77EE277AB0EE670A1437BD4688
:104060005DF8047B704700002DE9F04385B000AF98
:104070003D4B1B683A1D11461846FDF779FA00239F
:10408000FB732DE0DFED396AFB7B394A9B0013445B
:10409000D3ED007AFB7B9B0010333B440C3B93ED4C
:1040A000007AFE7BB0EE471AF0EE670AB0EE660AC1
:1040B000FFF7B7FFF0EE407AB30010333B440C3B00
:1040C000C3ED007AFA7BFB7B920010323A440C3A43
:1040D000126827499B000B441A60FB7B0133FB737A
:1040E000FB7B012BCED93B1D1846FEF71DF9BB68A3
:1040F0001846FCF729FA804689467B681846FCF783
:1041000023FA02460B4643EC112B49EC108B0AF0C4
:10411000ABFD53EC102B144683F000454FF000022A
:10412000144B20462946FCF767FA02460B46104618
:1041300019460BA3D3E90023FCF788FB02460B4684
:1041400010461946FCF750FD034607EE903AB0EED4
:10415000670A1437BD46BDE8F08300BFAFF30080A7
:10416000182D4454FB210940DC0900206666663F97
:10417000D40900200080664080B586B000AFF860AA
:10418000B9607A603B601E4AFB6813601D4ABB68D9
:1041900013601D4A7B6813601C4A3B681360184B10
:1041A0001868002200230021FDF702F8144B1B6859
:1041B00017491846FDF7DCF90021786803F006FE80
:1041C0003B684FF00002DA613B684FF000029A62F0
:1041D0003B689A6A3B685A623B685A6A3B681A6253
:1041E000FFF742FF87ED050A3B687A69DA6297EDCF
:1041F000050AFDF70DFA00BF1837BD4680BD00BFA8
:10420000DC090020E0090020E4090020E809002082
:10421000D409002080B500AF002280210A4801F0B7
:1042200073FE0520FDF7E0FE01228021064801F023
:104230006BFE0A20FDF7D8FE00228021024801F023
:1042400063FE00BF80BD00BF000C024090B583B08C
:1042500000AF87ED010AF6EE085A104B1B6893ED8C
:10426000017AD7ED017ADFED0E6A67EEA67AB0EE3D
:10427000006AC7EE866A094B1C68B0EE661AF0EE5B
:10428000470AB0EE650AFFF7CCFEF0EE407AC4EDC7
:10429000017A00BF0C37BD4690BD00BFE809002081
:1042A00000FC05470000000090B585B000AF404B12
:1042B0001B68184600F048FF3D4B1B684FF0FF316C
:1042C000184601F013F83A4B1B68184601F099F8AC
:1042D00003467B817B8907EE903AF8EE677A9FED83
:1042E000357AC7EE876A16EE900AFCF72DF902467A
:1042F0000B469FED291B43EC102B0AF0B7FC53EC47
:10430000102B10461946FCF76FFC03467B6078685B
:10431000FCF71AF922A3D3E90023FCF7DFFB0346DD
:10432000002B01D0244B10E07868FCF70DF9024611
:104330000B461DA1D1E90001FCF788FA02460B46A5
:1043400010461946FCF750FC0346FB60D7ED037A94
:10435000B2EE047AF4EEC77AF1EE10FA01D5174BFB
:10436000FB609FED177A174B1B68D3ED007A154B56
:104370001C6897ED031AF0EE670AB0EE470AFFF7E4
:1043800050FEF0EE407AC4ED007A00BF1437BD460F
:1043900090BD00BFAFF3008004560E2DB29DF33FD9
:1043A00078F35487DC0CB73F4BEA043411361940DC
:1043B000E009002000F07F4500008C420000204111
:1043C0003333733FE809002080B582B000AF0D4B56
:1043D000186800223B1D0021FCF76EFF97ED017A63
:1043E000094B1B68D3ED077A37EE677A064B1B68DB
:1043F000DFED066AC7EE267AC3ED027A00BF083702
:10440000BD4680BDDC090020E809002000007A4498
:1044100080B584B000AF194B186800223B460021DC
:10442000FCF7CAFF0023FB6020E0FB689B00103311
:104430003B44103B93ED007A114B1A68FB6808333C
:104440009B001344D3ED007A77EE677A0C4B1A6821
:104450009FED0C7A67EE877AFB6802339B0013446A
:104460000433C3ED007AFB680133FB60FB68022B69
:10447000DBDD00BF00BF1037BD4680BDDC0900207A
:10448000E8090020A889803A90B583B000AF87ED95
:10449000010AC7ED000AFFF7E7FDF0EE407AB0EE43
:1044A000671AD7ED000A97ED010AFDF7D3F8B0EED1
:1044B000407A0A4B1B68D3ED0B7A084B1C68F0EE70
:1044C000670AB0EE470AFDF7F3FCF0EE407AC4ED60
:1044D000067A00BF0C37BD4690BD00BFE80900203A
:1044E00080B58EB000AF0346FB804FF000033B6306
:1044F0004FF000037B6207F1180300221A605A6034
:104500009A604FF00003FB620023FB864BE04F4BA9
:104510001868002207F124030021FCF7CDFED7ED37
:10452000097A97ED0C7A77EE277AC7ED0C7A474B2C
:104530001868002207F10C030021FCF73DFF00235F
:1045400087F835301EE097F835309B0038333B4410
:10455000203B93ED007A97F835309B0038333B448D
:104560002C3BD3ED007A97F8353077EE277A9B0015
:1045700038333B44203BC3ED007A97F835300133A4
:1045800087F8353097F83530022BDCD9FFF76CFD12
:10459000B0EE407AD7ED0B7A77EE877AC7ED0B7ADB
:1045A000FB8E0133FB86FA8EFB889A42AFD3FB88E1
:1045B00007EE903AB8EEE77A254B1B68D7ED0C6A08
:1045C000C6EE877AC3ED077A0023FB8618E0FB8EE0
:1045D0009B0038333B44203BD3ED006AFB8807EE59
:1045E000903AB8EEE77A1A4B1A68FB8EC6EE877AD5
:1045F00008339B001344C3ED007AFB8E0133FB8626
:10460000FB8E022BE3D9124B1B68D3ED0A7A104BB9
:104610001B689FED107A77EEC77AC3ED0A7AFB88A4
:1046200007EE903AB8EEE77AD7ED0B6AC6EE877AD6
:10463000C7ED0A7A064B1B68BA6ADA6297ED0A0A76
:10464000FCF7F4FF00BF3837BD4680BDDC09002011
:10465000E8090020A889803A80B582B000AF786070
:10466000054A7B6813600021786803F08DFA00BF6B
:104670000837BD4680BD00BFEC09002080B483B080
:1046800000AF7860054B1B681B687A685A6300BFEF
:104690000C37BD465DF8047B704700BFEC09002075
:1046A00080B584B000AF87ED010AD7ED017ABBEE8B
:1046B000097AF4EEC77AF1EE10FA02D5214B7B604D
:1046C0000AE0D7ED017AB3EE097AF4EEC77AF1EE9B
:1046D00010FA01DD1C4B7B60D7ED017AF5EEC07A54
:1046E000F1EE10FA13D5D7ED017A9FED187A27EE87
:1046F000877AF3EE096AC7EE267A9FED157A77EE90
:10470000877AFCEEE77A17EE903AFB6012E0D7ED7D
:10471000017A9FED107A27EE877AF3EE096AC7EEE9
:10472000267A9FED0B7A77EE877AFCEEE77A17EE22
:10473000903AFB60F868FFF7A1FF00BF1037BD4655
:1047400080BD00BF0000C8C10000C84100409C44BB
:104750000090974500E0124580B483B000AF00237D
:104760007B60104B5B6C0F4A43F4804353640D4BEA
:104770005B6C03F480437B607B6800233B60094BE8
:104780001B6C084A43F080531364064B1B6C03F008
:1047900080533B603B6800BF0C37BD465DF8047B2F
:1047A000704700BF0038024080B58AB000AF786023
:1047B00007F1140300221A605A609A60DA601A61E5
:1047C0007B681B68174A934227D100233B61164B35
:1047D0005B6C154A43F480735364134B5B6C03F4B6
:1047E00080733B613B690023FB600F4B1B6B0E4AE0
:1047F00043F0040313630C4B1B6B03F00403FB60D7
:10480000FB6808237B610323BB610023FB6107F185
:1048100014031946054801F0C3F900BF2837BD4607
:1048200080BD00BF00200140003802400008024067
:1048300080B58AB000AF786007F1140300221A60D7
:104840005A609A60DA601A617B681B68194A934261
:104850002CD100233B61184B1B6B174A43F002031A
:104860001363154B1B6B03F002033B613B694FF471
:1048700040737B611223BB610023FB6103233B6216
:1048800004237B6207F1140319460C4801F088F9F0
:104890000023FB60084B1B6C074A43F400131364AE
:1048A000054B1B6C03F40013FB60FB6800BF28374B
:1048B000BD4680BD00540040003802400004024064
:1048C00080B58EB000AF786007F1240300221A6033
:1048D0005A609A60DA601A617B681B684D4A93429D
:1048E00016D100233B624C4B5B6C4B4A43F00103F7
:1048F0005364494B5B6C03F001033B623B6A00224B
:1049000000211B2001F083F81B2001F09CF87DE0C2
:104910007B681B68414A934235D10023FB613E4BC3
:104920001B6C3D4A43F0040313643B4B1B6C03F0C8
:104930000403FB61FB690023BB61374B1B6B364AE9
:1049400043F008031363344B1B6B03F00803BB6194
:10495000BB694FF480537B620223BB620023FB627E
:1049600000233B6302237B6307F1240319462C4891
:1049700001F016F9002200211E2001F048F81E2047
:1049800001F061F842E07B681B68264A93420ED131
:1049900000237B61204B1B6C1F4A43F01003136400
:1049A0001D4B1B6C03F010037B617B692EE07B6861
:1049B0001B681D4A934216D100233B61164B1B6CAA
:1049C000154A43F020031364134B1B6C03F02003C0
:1049D0003B613B6900220021372001F018F83720A5
:1049E00001F031F812E07B681B68104A93420DD148
:1049F0000023FB60084B5B6C074A43F002035364DF
:104A0000054B5B6C03F00203FB60FB6800BF3837AB
:104A1000BD4680BD00000140003802400008004053
:104A2000000C02400010004000140040000401404F
:104A300080B58CB000AF786007F11C0300221A60CB
:104A40005A609A60DA601A617B681B68B3F1804F24
:104A50004BD10023BB613F4B1B6C3E4A43F001032B
:104A600013643C4B1B6C03F00103BB61BB69002367
:104A70007B61384B1B6B374A43F001031363354BA3
:104A80001B6B03F001037B617B6900233B61314BAE
:104A90001B6B304A43F0020313632E4B1B6B03F076
:104AA00002033B613B694FF40043FB6102233B621D
:104AB00000237B620023BB620123FB6207F11C031E
:104AC0001946254801F06CF80823FB6102233B627C
:104AD00000237B620023BB620123FB6207F11C03FE
:104AE00019461E4801F05CF830E07B681B681C4AE0
:104AF00093422BD10023FB60164B1B6C154A43F0ED
:104B000002031364134B1B6C03F00203FB60FB688E
:104B10000023BB600F4B1B6B0E4A43F00103136372
:104B20000C4B1B6B03F00103BB60BB68C023FB6134
:104B300002233B6200237B620023BB620223FB62F1
:104B400007F11C031946044801F02AF800BF30376A
:104B5000BD4680BD00380240000002400004024013
:104B60000004004080B58AB000AF786007F11403FC
:104B700000221A605A609A60DA601A617B681B68CA
:104B8000244A93421FD100233B61234B1B6B224AD3
:104B900043F010031363204B1B6B03F010033B61C6
:104BA0003B694FF400737B610223BB610023FB610F
:104BB00000233B6201237B6207F114031946174867
:104BC00000F0EEFF22E07B681B68154A93421DD17E
:104BD0000023FB60104B1B6B0F4A43F0040313636D
:104BE0000D4B1B6B03F00403FB60FB68C0237B6170
:104BF0000223BB610023FB6100233B6203237B6232
:104C000007F114031946074800F0CAFF00BF283710
:104C1000BD4680BD00000140003802400010024047
:104C2000000401400008024080B58AB000AF7860FF
:104C300007F1140300221A605A609A60DA601A6160
:104C40007B681B681D4A934234D100233B611C4B97
:104C50001B6C1B4A43F480231364194B1B6C03F435
:104C600080233B613B690023FB60154B1B6B144A9F
:104C700043F004031363124B1B6B03F00403FB604C
:104C8000FB684FF440637B610223BB610023FB613F
:104C900003233B6207237B6207F11403194609488B
:104CA00000F07EFF00220021272000F0B0FE272028
:104CB00000F0C9FE00BF2837BD4680BD0048004057
:104CC000003802400008024080B400AFFEE780B424
:104CD00000AFFEE780B400AFFEE780B400AFFEE7B0
:104CE00080B400AFFEE780B400AF00BFBD465DF802
:104CF000047B704780B400AF00BFBD465DF8047B05
:104D0000704780B400AF00BFBD465DF8047B7047BC
:104D100080B500AF00F090F900BF80BD80B500AF56
:104D2000024803F0CFFA00BF80BD00BFD4020020CC
:104D300080B500AF024803F0C5FA00BF80BD00BFD8
:104D4000AC03002080B500AF024804F05BFC00BF5C
:104D500080BD00BFCC04002080B500AF024803F046
:104D6000B1FA00BF80BD00BF3C04002080B400AF9A
:104D700001231846BD465DF8047B704780B582B0BC
:104D800000AF7860396006F04DFC034616221A60C9
:104D90004FF0FF3318460837BD4680BD80B582B05E
:104DA00000AF78604FF0FF317868FFF7E7FFFEE76C
:104DB00080B586B000AFF860B9607A6000237B618F
:104DC0000AE0AFF300800146BB685A1CBA60CAB261
:104DD0001A707B6901337B617A697B689A42F0DBE8
:104DE0007B6818461837BD4680BD80B586B000AFD9
:104DF000F860B9607A6000237B6109E0BB685A1CE7
:104E0000BA601B781846AFF300807B6901337B6181
:104E10007A697B689A42F1DB7B6818461837BD4691
:104E200080BD80B483B000AF78604FF0FF33184688
:104E30000C37BD465DF8047B704780B483B000AF8B
:104E4000786039603B684FF400525A60002318467E
:104E50000C37BD465DF8047B704780B483B000AF6B
:104E60007860012318460C37BD465DF8047B704717
:104E700080B485B000AFF860B9607A60002318464E
:104E80001437BD465DF8047B7047000080B586B0DE
:104E900000AF7860144A154BD31A7B617B693B6184
:104EA000134B1B68002B02D1114B124A1A60104B96
:104EB0001A687B6813443A699A4207D206F0B2FB3B
:104EC00003460C221A604FF0FF3309E0084B1B68C1
:104ED000FB60074B1A687B681344054A1360FB6844
:104EE00018461837BD4680BD0000022000040000AF
:104EF000F0090020480B002080B400AF064BD3F827
:104F00008830054A43F47003C2F8883000BFBD46BC
:104F10005DF8047B704700BF00ED00E080B500AF96
:104F20004FF48071054800F0D7FF0346012B14BFF2
:104F300001230023DBB2184680BD00BF000C0240F5
:104F4000DFF834D0FFF7D8FF0C480D490D4A002395
:104F500002E0D458C4500433C4188C42F9D30A4A2E
:104F60000A4C002301E013600432A242FBD306F096
:104F70005FFBFDF7FDFA70470000022000000020F3
:104F8000E801002088250108E8010020440B0020EA
:104F9000FEE7000080B500AF0E4B1B680D4A43F4DE
:104FA000007313600B4B1B680A4A43F48063136061
:104FB000084B1B68074A43F480731360032000F01A
:104FC0001BFD0F2000F008F8FFF7C6FB0023184672
:104FD00080BD00BF003C024080B582B000AF786069
:104FE000124B1A68124B1B7819464FF47A73B3FBB5
:104FF000F1F3B2FBF3F3184600F033FD0346002B48
:1050000001D001230EE07B680F2B0AD800227968BB
:105010004FF0FF3000F0FBFC064A7B681360002372
:1050200000E0012318460837BD4680BD000000207F
:10503000080000200400002080B400AF064B1B785D
:105040001A46064B1B681344044A136000BFBD4652
:105050005DF8047B704700BF08000020F4090020C1
:1050600080B400AF034B1B681846BD465DF8047B57
:10507000704700BFF409002080B584B000AF7860AD
:10508000FFF7EEFFB8607B68FB60FB68B3F1FF3FA2
:1050900005D00A4B1B781A46FB681344FB6000BF1F
:1050A000FFF7DEFF0246BB68D31AFA689A42F7D8C8
:1050B00000BF00BF1037BD4680BD00BF0800002004
:1050C00080B584B000AF78600023FB737B68002B51
:1050D00001D1012333E07B681B6C002B09D1786878
:1050E000FFF762FB7B6800225A647B68002283F82A
:1050F0003C207B681B6C03F01003002B18D17B68ED
:105100001B6C23F4885323F0020343F002027B68F4
:105110001A64786800F0A4FA7B6800225A647B68FD
:105120001B6C23F0030343F001027B681A6401E067
:105130000123FB737B68002283F83C20FB7B18462D
:105140001037BD4680BD000080B485B000AF7860E8
:105150000023BB607B6893F83C30012B01D1022314
:10516000B2E07B68012283F83C207B681B689B6867
:1051700003F00103012B18D07B681B689A687B68D9
:105180001B6842F001029A60524B1B68524AA2FB14
:1051900003239A0C13465B001344BB6002E0BB6818
:1051A000013BBB60BB68002BF9D17B681B689B6827
:1051B00003F00103012B7AD17B681B6C23F4E063BD
:1051C00023F0010343F480727B681A647B681B68D8
:1051D0005B6803F48063002B07D07B681B6C23F4AF
:1051E000405343F480527B681A647B681B6C03F461
:1051F0008053B3F5805F06D17B685B6C23F00602B9
:105200007B685A6402E07B6800225A647B68002253
:1052100083F83C20314BFB607B681B686FF02202F7
:105220001A60FB685B6803F01F03002B2AD17B68C0
:105230001B682B4A934215D07B681B68294A93420E
:1052400005D1264B5B6803F01F03002B0AD07B6857
:105250001B68254A934236D1204B5B6803F010034C
:10526000002B30D17B681B689B6803F04053002BF8
:1052700029D17B681B689A687B681B6842F0804272
:105280009A6020E07B681B68154A93421BD17B68BB
:105290001B689B6803F04053002B14D17B681B688C
:1052A0009A687B681B6842F080429A600BE07B68DA
:1052B0001B6C43F010027B681A647B685B6C43F0E4
:1052C00001027B685A64002318461437BD465DF816
:1052D000047B70470000002083DE1B430023014055
:1052E00000200140002101400022014080B584B02F
:1052F00000AF786039600023FB607B681B689B68A7
:1053000003F48063B3F5806F13D17B681B689B68DF
:1053100003F48073B3F5807F0BD17B681B6C43F083
:1053200020027B681A647B68002283F83C200123FA
:1053300063E0FFF795FEF86021E03B68B3F1FF3FC3
:105340001DD03B68002B07D0FFF78AFE0246FB68A2
:10535000D31A3A689A4212D27B681B681B6803F022
:105360000203022B0BD07B681B6C43F004027B68AA
:105370001A647B68002283F83C2003233DE07B68AD
:105380001B681B6803F00203022BD6D17B681B68E5
:105390006FF012021A607B681B6C43F400727B682A
:1053A0001A647B681B689B6803F04053002B23D171
:1053B0007B681B7E002B1FD17B681B68DB6A03F4B4
:1053C0007003002B06D07B681B689B6803F4806326
:1053D000002B11D17B681B6C23F480727B681A64EC
:1053E0007B681B6C03F48053002B05D17B681B6C1E
:1053F00043F001027B681A64002318461037BD464B
:1054000080BD80B483B000AF78607B681B68DB6CC4
:1054100018460C37BD465DF8047B704780B485B0F4
:1054200000AF786039600023BB607B6893F83C3044
:10543000012B01D1022305E17B68012283F83C2086
:105440003B681B68092B25D97B681B68D9683B68BA
:105450001B689BB21A4613465B0013441E3B07228F
:1054600002FA03F3DA437B681B680A40DA607B6860
:105470001B68D9683B689A683B681B689BB21846F2
:1054800003465B0003441E3B9A407B681B680A434B
:10549000DA6022E07B681B6819693B681B689BB275
:1054A0001A4613465B001344072202FA03F3DA4359
:1054B0007B681B680A401A617B681B6819693B6836
:1054C0009A683B681B689BB2184603465B0003441E
:1054D0009A407B681B680A431A613B685B68062B2D
:1054E00024D87B681B68596B3B685A6813469B003D
:1054F0001344053B1F2202FA03F3DA437B681B685F
:105500000A405A637B681B68596B3B681B689BB2F7
:1055100018463B685A6813469B001344053B00FA43
:1055200003F27B681B680A435A634CE03B685B6884
:105530000C2B24D87B681B68196B3B685A68134690
:105540009B001344233B1F2202FA03F3DA437B68D8
:105550001B680A401A637B681B68196B3B681B68F1
:105560009BB218463B685A6813469B001344233B82
:1055700000FA03F27B681B680A431A6323E07B6826
:105580001B68D96A3B685A6813469B001344413B29
:105590001F2202FA03F3DA437B681B680A40DA62CF
:1055A0007B681B68D96A3B681B689BB218463B68DE
:1055B0005A6813469B001344413B00FA03F27B6890
:1055C0001B680A43DA62224BFB607B681B68214A36
:1055D000934209D13B681B68122B05D1FB685B68BD
:1055E00043F48002FB685A607B681B68194A934247
:1055F00023D13B681B68102B03D03B681B68112B21
:105600001BD1FB685B6843F40002FB685A603B688F
:105610001B68102B11D1104B1B68104AA2FB0323EF
:105620009A0C13469B0013445B00BB6002E0BB680E
:10563000013BBB60BB68002BF9D17B68002283F87B
:105640003C20002318461437BD465DF8047B7047A4
:1056500000230140002001400000002083DE1B43A6
:1056600080B485B000AF7860794BFB60FB685B6805
:1056700023F44032FB685A60FB685A687B685B68B9
:105680001A43FB685A607B681B685A687B681B6812
:1056900022F480725A607B681B6859687B681B69BA
:1056A0001A027B681B680A435A607B681B685A6849
:1056B0007B681B6822F040725A607B681B685968DF
:1056C0007B689A687B681B680A435A607B681B6822
:1056D0009A687B681B6822F400629A607B681B688A
:1056E00099687B68DA687B681B680A439A607B6804
:1056F0009B6A584A934222D07B681B689A687B68F1
:105700001B6822F070629A607B681B6899687B68EE
:105710009A6A7B681B680A439A607B681B689A6870
:105720007B681B6822F040529A607B681B6899680E
:105730007B68DA6A7B681B680A439A600FE07B68C3
:105740001B689A687B681B6822F070629A607B68AD
:105750001B689A687B681B6822F040529A607B68DD
:105760001B689A687B681B6822F002029A607B685B
:105770001B6899687B681B7E5A007B681B680A431C
:105780009A607B6893F82030002B1BD07B681B68E5
:105790005A687B681B6842F400625A607B681B6829
:1057A0005A687B681B6822F460425A607B681B68F9
:1057B00059687B685B6A013B5A037B681B680A4334
:1057C0005A6007E07B681B685A687B681B6822F494
:1057D00000625A607B681B68DA6A7B681B6822F487
:1057E0007002DA627B681B68D96A7B68DB69013BFF
:1057F0001A057B681B680A43DA627B681B689A6833
:105800007B681B6822F400729A607B681B68996849
:105810007B6893F830305A027B681B680A439A60B1
:105820007B681B689A687B681B6822F480629A60B8
:105830007B681B6899687B685B699A027B681B6858
:105840000A439A6000BF1437BD465DF8047B704779
:10585000002301400100000F80B485B000AF7860E4
:105860007B6803F00703FB600C4BDB68BB60BA6826
:105870004FF6FF031340BB60FB681A02BB6813437B
:1058800043F0BF6343F40033BB60044ABB68D3609A
:1058900000BF1437BD465DF8047B704700ED00E0A3
:1058A00080B400AF044BDB681B0A03F00703184603
:1058B000BD465DF8047B704700ED00E080B483B026
:1058C00000AF0346FB7197F90730002B0BDBFB7928
:1058D00003F01F02074997F907305B09012000FA1E
:1058E00002F241F8232000BF0C37BD465DF8047B6F
:1058F000704700BF00E100E080B483B000AF034612
:105900003960FB7197F90730002B0ADB3B68DAB28C
:105910000C4997F907301201D2B20B4483F80023E7
:105920000AE03B68DAB20849FB7903F00F03043B55
:105930001201D2B20B441A7600BF0C37BD465DF897
:10594000047B704700E100E000ED00E080B489B026
:1059500000AFF860B9607A60FB6803F00703FB6191
:10596000FB69C3F10703042B28BF0423BB61FB6958
:105970000433062B02D9FB69033B00E000237B6163
:105980004FF0FF32BB6902FA03F3DA43BB681A40F7
:105990007B699A404FF0FF317B6901FA03F3D943E9
:1059A0007B680B40134318462437BD465DF8047BE3
:1059B0007047000080B582B000AF78607B68013B23
:1059C000B3F1807F01D301230FE00A4A7B68013BDA
:1059D00053600F214FF0FF30FFF78EFF054B002281
:1059E0009A60044B07221A60002318460837BD4608
:1059F00080BD00BF10E000E080B582B000AF7860ED
:105A00007868FFF729FF00BF0837BD4680BD80B525
:105A100086B000AF0346B9607A60FB7300237B61F8
:105A2000FFF73EFF78617A68B9687869FFF78EFF03
:105A3000024697F90F3011461846FFF75DFF00BF89
:105A40001837BD4680BD80B582B000AF0346FB71FC
:105A500097F907301846FFF731FF00BF0837BD46FA
:105A600080BD80B582B000AF78607868FFF7A2FF94
:105A7000034618460837BD4680BD80B584B000AFE8
:105A800078607B689B6DFB60FFF7EAFAB8607B6823
:105A900093F83530DBB2022B08D07B6880225A6540
:105AA0007B68002283F83420012352E07B681B6866
:105AB0001A687B681B6822F016021A607B681B68F4
:105AC0005A697B681B6822F080025A617B681B6CF4
:105AD000002B03D17B689B6C002B07D07B681B6875
